:1000000032C00000000000000000000000000000FE
:1000100000000000000000000000000000000000E0
:1000200000000000000000003DC000007DC0000096
:1000300000000000000000000000000000000000C0
:1000400000000000000000000000000000000000B0
:10005000000000000000000000000000D7C2000007
:1000600000004CC2EFC111241FBECFEFDAE0CDBFBC
:10007000DEBFE8EFF7E609E6A0E0B1E0E833F0071D
:100080001CF425902D92FACFA0E4B2E007E0A03E48
:10009000B00714F41D92FBCF0E94F81278940E94CE
:1000A0001308E1CF1F920F920FB60F9211248F9376
:1000B0009F938091E1001092E10083FF13C01092A2
:1000C000E90091E09093EB001092EC0092E19093A4
:1000D000ED0098E09093F0001092F6011092F80174
:1000E0001092F70182FF19C08091F601882379F000
:1000F00080910002882359F0815080930002811181
:1001000006C084E08093E9008AE38093E80083E0FE
:100110008093E90084E08093F0009F918F910F908D
:100120000FBE0F901F9018951F920F920FB60F924F
:100130001124EF92FF920F931F932F933F934F93AE
:100140005F936F937F938F939F93AF93BF93EF933F
:10015000FF93CF93DF931F92CDB7DEB78091F4006A
:1001600083FF14C083E08093E9008091E80082FF60
:1001700008C047E050E066E976E082E192E00E9444
:1001800013068091E800887F8093E8001092E900D0
:100190008091E80083FF3BC19091F1008091F100D4
:1001A0003091F1002091F100E32EF12CF22A009120
:1001B000F1002091F10010E0122B2091F1006091EC
:1001C000F10032EF3093E800863009F046C036E0A7
:1001D0008EE391E6FC01459154914E155F0539F48B
:1001E000FC013296459154914017510721F0079632
:1001F000315081F70CC1FC01349645915491FC01BA
:100200003696849130E0362B2F3F310519F010F0EF
:100210002FEF30E0281708F4822F3EEF9091E8008E
:10022000292F2570D9F392FDF5C0982F813108F060
:1002300090E1FA01292F222331F064916093F100BB
:1002400021503196F8CF490F511D891B3093E8009A
:100250008111E4CF903111F3DDC0853051F48EEF80
:100260008093E8000E94AA0D8E2D80688093E300A1
:10027000D1C0893069F59111A7C0E092F6011092C2
:10028000F8011092F701109200028EEF8093E800BF
:1002900041E08FEF91E64093E9009C012F5F3F4FD3
:1002A000FC0154915093EB00552359F0F90124912E
:1002B0002093EC009C012D5F3F4F319684918093F9
:1002C000ED004F5F453011F0C901E5CF8EE19AC0D6
:1002D000883051F4903809F077C00E94AA0D8091BF
:1002E000F6018093F1006CC0813279F4913A09F003
:1002F0006BC00E94AA0DE9EFF1E081918093F100BB
:1003000022E0E030F207C9F75BC08032B1F59132EC
:1003100009F05AC08091E80082FFFCCFE9EFF1E0DC
:100320008091F100819382E0E030F807C9F78BEF0C
:100330008093E8008EEF8093E8008091F90190911E
:10034000FA01A091FB01B091FC01803B9440A10512
:10035000B10509F05FC087E797E7909301088093A4
:1003600000082BE088E190E00FB6F894A895809300
:1003700060000FBE209360004DC0823251F4913274
:1003800009F045C0F092F801E092F7010E94AA0D31
:1003900017C0811119C099830E94AA0D99819238C2
:1003A00051F40093E9008091EB0085FB882780F9E8
:1003B0001092E90001C080E08093F1001092F100FA
:1003C0008EEF8093E80026C0282F2D7F2130F9F48E
:1003D0009230E9F4EF28D9F40F779FEF900F943023
:1003E000B0F49EEF9093E8000093E900833079F039
:1003F00089E18093EB0081E090E0002E01C0880F3E
:100400000A94EAF78093EA001092EA0003C081E2BE
:100410008093EB000F90DF91CF91FF91EF91BF910F
:10042000AF919F918F917F916F915F914F913F918C
:100430002F911F910F91FF90EF900F900FBE0F9093
:100440001F9018951F920F920FB60F9211242F93A1
:100450003F934F935F936F937F938F939F93AF934C
:10046000BF93EF93FF932091790230917A026091CC
:100470007B0270917C02A901461B570B4F735527D5
:10048000C90180959095860F971F8F739927892BA7
:1004900031F481E090E09093BE028093BD026091C0
:1004A000CE008091BD029091BE02892B61F4F901CA
:1004B000E958FD4F66832F5F3F4F2F7333273093EB
:1004C0007A0220937902452B41F447E050E066E937
:1004D00076E08CE192E00E941306FF91EF91BF91CC
:1004E000AF919F918F917F916F915F914F913F91CC
:1004F0002F910F900FBE0F901F9018951F920F9283
:100500000FB60F9211242F933F934F935F936F93E6
:100510007F938F939F93AF93BF93EF93FF93AEB56A
:10052000A53011F52091A8053091A9058091A60567
:100530009091A705821B930B8F739927892B89F0C4
:10054000E091AA05F091AB05E20FF31F80818EBD0B
:10055000C90101968F7399279093A9058093A805E7
:1005600044C076981EBC41C01EBCAA23F1F1409144
:100570009C0550919D0560919E0570919F059A0183
:10058000261B370B2F733327CA0180959095860F52
:10059000971F8F739927892B31F481E090E0909316
:1005A000A3058093A2058091A2059091A305892BB4
:1005B00091F4E091A005F091A105E40FF51FA0834F
:1005C00080919C0590919D0501968F73992790933A
:1005D0009D0580939C05232B41F447E050E066E99C
:1005E00076E086E292E00E941306FF91EF91BF91C0
:1005F000AF919F918F917F916F915F914F913F91BB
:100600002F910F900FBE0F901F9018951F920F9271
:100610000FB60F9211242F933F934F935F936F93D5
:100620007F938F939F93AF93BF93EF93FF938091AB
:10063000AE079091AF07A091B007B091B1070196B6
:10064000A11DB11D8093AE079093AF07A093B00793
:10065000B093B10747E050E060E070E086E896E0D4
:100660000E940829FF91EF91BF91AF919F918F91C7
:100670007F916F915F914F913F912F910F900FBE9E
:100680000F901F901895660776075E076607860726
:100690008E077607760776077E0786078607860722
:1006A000860776077607760776078E0796079E07F2
:1006B000A6077E07860796079E07A607AE07B6071A
:1006C000BE07BE07C607AE07B60777015A112C1141
:1006D000AF01A3129A12C5018C2D372DCA011C2D12
:1006E000132DD201082DFF2CDA01C52EF62C6C69D2
:1006F0006E696E6F494F3A20676974206166326493
:10070000393237206275696C742057656420323045
:1007100031362D30312D32372031373A31373A34B6
:10072000302061727475726F4073657276657242C3
:100730000A000000000000000000000000000000AF
:1007400000000000000000000000000000000000A9
:100750000000000000000000000000000000000099
:10076000325F0000000000002C5F0000000000006D
:10077000EC5F000000000000DC5F000000000000F3
:10078000FE620000C5020000505F00000000000093
:1007900004630000C5020000F064000000000000D7
:1007A0001963000000000000A065000000000000C8
:1007B000C467000088050000CA67000088050000C3
:1007C000D65F0000000047E050E060E070E086E89F
:1007D00096E00C94082983B7817F83BF83B781603B
:1007E00083BF889583B78E7F83BF08950E94822937
:1007F000892B19F00E949529F9CF0E94EB03F6CFBF
:10080000E0E4F2E0F183E083F0934302E0934202FC
:1008100080E090E008958F929F92AF92BF92CF9226
:10082000DF92EF92FF920F931F93CF93DF93C091CC
:100830004002D09141022697CE80DF8026E0C21A86
:10084000D10800E011E0E12C82E0F82E32E0CA335A
:10085000D30709F44CC08091AE079091AF07A091E7
:10086000B007B091B10728813981821B930B97FDA6
:100870003EC06C817D8147E050E08AE896E00E94AE
:100880000829EE81FF8132E0E034F307C1F04091A6
:10089000AE075091AF076091B0077091B107DF01CB
:1008A00016978D909D90AD90BC901397480D591D53
:1008B0006A1D7B1D4D935D936D937C931397A88563
:1008C000B985B383A283ED93FC931F830E83F986CE
:1008D000E8866AE070E0CE010E94C92BF6018681AD
:1008E0009781E6019C01265031096901AFCFDF9164
:1008F000CF911F910F91FF90EF90DF90CF90BF901D
:10090000AF909F908F900895CF92DF92EF92FF92D9
:100910000F931F93CF93DF936B017C01EA018AE071
:1009200090E00E949B2CFC01009709F469C00091A3
:10093000AE071091AF072091B0073091B1070C0DB1
:100940001D1D2E1D3F1D0083118322833383D583FC
:10095000C483FFB6F894A0914002B091410222E016
:10096000A034B207D1F406969093430280934202DA
:10097000B783A683B187A0879093410280934002FA
:100980003BC0041B150B260B370B008311832283FE
:10099000338316960D90BC91A02D1697CD01069627
:1009A00022E080349207B9F00081118122813381E5
:1009B0004D915D916D917C911397E801C41BD50B0E
:1009C000D7FFDFCF401B510B620B730B4D935D9331
:1009D0006D937C9313979F012A5F3F4F1896CD919B
:1009E000DC91199719963C932E93189797838683D9
:1009F000D187C08739832883FFBE80E090E002C0A2
:100A000084EF9FEFDF91CF911F910F91FF90EF90B7
:100A1000DF90CF9008958F929F92AF92BF92CF9226
:100A2000DF92EF92FF92CF93DF93C090AE07D0900A
:100A3000AF07E090B007F090B107C0E3D2E082E0EA
:100A4000C034D80748F4EC81FD81309719F08E81CD
:100A50009F8109956096F3CFC0E3D2E0460157012C
:100A600084E6880E911CA11CB11C82E0C034D8071A
:100A7000C8F48C859D85AE85BF85880D991DAA1DFE
:100A8000BB1D8C879D87AE87BF87BC01CD016C19CC
:100A90007D098E099F09AE010E94840497FD05C05F
:100AA0006096E3CF80E090E002C08FEF9FEFDF9190
:100AB000CF91FF90EF90DF90CF90BF90AF909F903D
:100AC0008F9008950F931F93CF93DF93FC01C48100
:100AD000D581EA81FB818E819F8109959F838E83D9
:100AE00088859985AA85BB850C851D852E853F85C2
:100AF000800F911FA21FB31F8C879D87AE87BF8772
:100B00000091AE071091AF072091B0073091B10767
:100B1000A801481B590B57FD09C0D901C80101960E
:100B2000A11DB11D8C879D87AE87BF876C857D8594
:100B30008E859F85601B710B820B930BAE01DF913D
:100B4000CF911F910F910C9484040F931F93CF9317
:100B5000DF93CDB7DEB72A970FB6F894DEBF0FBE8E
:100B6000CDBFDC0114960D911C911597C801089614
:100B7000F801A085B1852285338513963C932E9389
:100B80001297F901B183A083D80119969C938E9393
:100B900018971B969C938E931A971696ED91FC913D
:100BA0001797CF010696268137812817390771F4E8
:100BB000628173814AE050E0CE0101960E94102FBD
:100BC000EF81F885309711F0C8010995F801178277
:100BD00016822A960FB6F894DEBF0FBECDBFDF9106
:100BE000CF911F910F9108950F931F93CF93DF9390
:100BF0008C01C8E0D2E0F2E0C033DF0758F468812E
:100C00007981F801808191810E943327892B29F015
:100C10002A96F1CF80E090E001C0CE01DF91CF9124
:100C20001F910F910895AF92BF92CF92DF92EF92F2
:100C3000FF920F931F93CF93DF937B016A01FC0117
:100C4000C681D7812097F1F028975C01F6E0AF0EBE
:100C5000B11C08E31FE5CE0108968A159B0591F0AB
:100C6000A601BE01C7010E94082997FF06C01F9375
:100C70000F930E94AF250F900F900884D985C02D47
:100C80002897E9CFDF91CF911F910F91FF90EF90BF
:100C9000DF90CF90BF90AF900895AF92BF92CF9268
:100CA000DF92EF92FF920F931F93CF93DF93CDB715
:100CB000DEB72A970FB6F894DEBF0FBECDBF7C011A
:100CC0006B015A016115710519F486E190E024C0A9
:100CD0008CE090E00E949B2C8C01009739F487E116
:100CE00090E0909387058093860569C0DC0111969A
:100CF000FC92EE921596BC92AE9214971396DC92EB
:100D0000CE9212970E94F4057C01009761F4F801DD
:100D10001782168286E090E090938705809386057F
:100D200000E010E04CC0D80117969C938E93169764
:100D3000FC0186819781892B31F4C7010696978340
:100D4000868391878087D70112966D917C91139746
:100D50004AE050E0CE0101960E94102FE981FA810D
:100D6000309741F0C8010995009721F0F8011782EA
:100D70001682D2CFD7011696ED91FC911797C80134
:100D8000089693838283D8011996FC93EE93189763
:100D900097012A5F3F4F1B963C932E931A97F701BA
:100DA00097838683CA94CD2819F486EA96E002C018
:100DB00082EA96E047E050E0B8010E940829C801A5
:100DC0002A960FB6F894DEBF0FBECDBFDF91CF914C
:100DD0001F910F91FF90EF90DF90CF90BF90AF9059
:100DE0000895CF93DF93EC018E819F81892B49F485
:100DF00089E090E090938705809386058FEF9FEFC1
:100E000017C08A819B81019719F48EE996E002C090
:100E10008AE996E047E050E0BE010E94082946E0DA
:100E200050E0BE018EE896E00E94082980E090E044
:100E3000DF91CF910895CF92DF92EF92FF920F93BF
:100E40001F93CF93DF93CDB7DEB72A970FB6F894F1
:100E5000DEBF0FBECDBF8C017B016A01DC0116969F
:100E6000ED91FC911797309719F489E090E012C04A
:100E7000628173814AE050E0CE0101960E94102FFA
:100E8000F801828180FF04C0EB81FC81309749F436
:100E900081E090E090938705809386058FEF9FEF28
:100EA00011C0A601B701C801099597FF05C0222707
:100EB0003327281B390B02C020E030E03093870530
:100EC000209386052A960FB6F894DEBF0FBECDBFDD
:100ED000DF91CF911F910F91FF90EF90DF90CF9016
:100EE0000895CF92DF92EF92FF920F931F93CF93CB
:100EF000DF93CDB7DEB72A970FB6F894DEBF0FBEEB
:100F0000CDBF8C017B016A01DC011696ED91FC914D
:100F10001797309719F489E090E012C062817381CD
:100F20004AE050E0CE0101960E94102FF801828124
:100F300081FF04C0ED81FE81309749F481E090E0AB
:100F400090938705809386058FEF9FEF11C0A601D0
:100F5000B701C801099597FF05C022273327281B31
:100F6000390B02C020E030E03093870520938605DE
:100F70002A960FB6F894DEBF0FBECDBFDF91CF919A
:100F80001F910F91FF90EF90DF90CF900895EF9217
:100F9000FF920F931F93CF93DF93CDB7DEB72A97BE
:100FA0000FB6F894DEBF0FBECDBF8C017B01DC0114
:100FB0001696ED91FC911797309719F489E090E01F
:100FC0000EC0628173814AE050E0CE0101960E941A
:100FD000102FE985FA85309749F481E090E09093ED
:100FE0008705809386058FEF9FEF10C0B701C8017A
:100FF000099597FF05C022273327281B390B02C00C
:1010000020E030E030938705209386052A960FB6BE
:10101000F894DEBF0FBECDBFDF91CF911F910F912E
:10102000FF90EF900895CF93DF9314BE88E10FB641
:10103000F89480936000109260000FBE0E944528D3
:10104000C9ECD0E0219729F088EE93E00E94802837
:10105000F9CFDF91CF910C94F603809146029091E5
:1010600047020C94F10680914602909147020C943D
:10107000710780914602909147020C941B0740E053
:1010800050E063E070E08BE391E00E944D069093A6
:10109000470280934602892B19F48DEE9FEF089545
:1010A0001092440282E08093450240E050E063E009
:1010B00070E084E491E00E944D0690934902809391
:1010C0004802892B51F380E090E008958091450219
:1010D000813071F480914A02882311F080E001C0D0
:1010E00082E08093450281111CC087E591E01BC01E
:1010F00047E050E060E070E08EEB96E00E94082947
:1011000097FF09C08AE99FE59F938F930E94AF25BF
:101110000F900F90089581E08093450281E591E062
:1011200002C08CE491E09F938F9388E79FE59F93A3
:101130008F930E94AF250F900F900F900F900895FE
:101140000C946608DF92EF92FF920F931F93CF9358
:10115000DF93CDB7DEB7C054D1090FB6F894DEBF28
:101160000FBECDBFDC011496ED90FC9015978091D9
:10117000480290914902E816F906D1F481E0809383
:101180004A0280914502813011F01092450240E4FC
:1011900050E0BE016F5F7F4FC7010E941B0718160A
:1011A00019060CF0D7C0AC01BE016F5F7F4FBBC00A
:1011B000D7011696ED91FC911797CF0106962681DF
:1011C00037812817390709F4C5C0809146029091EC
:1011D0004702E816F90641F08091AC079091AD07FF
:1011E000E816F90609F0B6C080914402882339F068
:1011F0008091AC079091AD07E816F90689F48091CB
:101200004502813069F040E450E0BE016F5F7F4FDE
:10121000C7010E941B078C01181619061CF09AC002
:1012200000E010E08091AC079091AD07E816F90658
:10123000F1F58091460290914702FE0131967F01BF
:101240009F012E193F09201731073CF4009729F020
:1012500021912D31A9F70E946608809145028130C5
:1012600049F447E050E060E070E086EC96E00E94D0
:10127000082970C081110AC08091480290914902EA
:10128000009721F0A801B7010E94710780914402E4
:10129000813009F45FC08091460290914702009727
:1012A00009F458C0A801B7010E94710753C080918A
:1012B000440281113DC0FE0131967F01CF018E199C
:1012C0009F09801791074CF5D19086E58D0D8230EE
:1012D000A8F781E0809344022BE531E03F932F9300
:1012E000E0914602F09147020680F781E02D81816E
:1012F0008F9380818F9326E53FE53F932F930E9444
:10130000AF258D2D90E08A5A91090E9435110F90DA
:101310000F900F900F900F900F90809144028130AA
:10132000C9F0A801B7018091840590918505BCCFD3
:1013300047E050E060E070E08AEA96E00E94082909
:1013400097FF08C089EB9FE59F938F930E94AF257D
:101350000F900F90C05CDF4F0FB6F894DEBF0FBE4A
:10136000CDBFDF91CF911F910F91FF90EF90DF9054
:1013700008952F923F924F925F926F927F928F9239
:101380009F92AF92BF92CF92DF92EF92FF920F9314
:101390001F93CF93DF93CDB7DEB728970FB6F8949E
:1013A000DEBF0FBECDBF03E612E018870F83F3E266
:1013B0002F2E312C60E070E0A12CB12C40E050E0E9
:1013C00081E090E0A0E0B0E09A012F5F3F4FF10193
:1013D000D080F0904B020F2D10E0042E02C0159526
:1013E00007950A94E2F700FD0CC001E010E002C08E
:1013F000000F111F4A95E2F7A8014F2940934B02B5
:1014000096C0EF81F885E080ED24FF24F39440E05E
:1014100050E089010D5A1D4F1A830983F901E35ADF
:10142000FD4FFC83EB838901085A1D4F1E830D83FA
:10143000E981FA8110811F2109F472C01F2D1E213C
:1014400009F46EC0EB81FC8110811F2191F1EF81C5
:10145000F88510811F2169F5CFB6F8948A01060F2F
:10146000171FF801689414F8F595E7951694E1F7BD
:10147000EE0FFF1FEE0FFF1FE45BFD4F0F711127F3
:101480002C013D0104C0440C551C661C771C0A95B8
:10149000D2F780809180A280B38084289528A628E6
:1014A000B72880829182A282B382CFBEAA24A3945D
:1014B000B12CED81FE8110811F2191F1EF81F88522
:1014C00010811F2169F1CFB6F8948A01060F171F0A
:1014D000F801689414F8F595E7951694E1F7EE0F86
:1014E000FF1FEE0FFF1FE45BFD4F0F7111272C0153
:1014F0003D0104C0440C551C661C771C0A95D2F7AC
:1015000080809180A280B38084289528A628B7285F
:1015100080829182A282B382CFBEAA24A394B12CEE
:10152000FF0C4F5F5F4F4830510509F081CFEF81CD
:10153000F885D192F887EF83685F7F4FF3E02F0E35
:10154000311C2530310511F0A9013ECFAB2801F146
:1015500047E050E06CE472E08EEA96E028960FB621
:10156000F894DEBF0FBECDBFDF91CF911F910F91D9
:10157000FF90EF90DF90CF90BF90AF909F908F90B3
:101580007F906F905F904F903F902F900C94082920
:1015900028960FB6F894DEBF0FBECDBFDF91CF9176
:1015A0001F910F91FF90EF90DF90CF90BF90AF9081
:1015B0009F908F907F906F905F904F903F902F9073
:1015C0000895CF93DF9388329105E0F5AC01477021
:1015D000552721E030E001C0220F4A95EAF7EC01DF
:1015E000A3E0D595C795AA95E1F7522F5095DE0156
:1015F000A25ABD4F4C9145234C93FE01E75AFD4F33
:10160000908195239083CC5ADD4F888185238883F0
:1016100060FF02C0422B4C9361FF02C0922B90836B
:1016200067FF02C0822B8883CB018C7099270097BB
:1016300059F08C91822B8C938081822B808380E067
:1016400090E002C08AEE9FEFDF91CF910895ECE722
:10165000F0E080818F738083808180648083EAE7FB
:10166000F0E080818760808380818F77808380E055
:1016700090E00895FC01218180917C00807E809320
:101680007C0030917C00822F90E008970CF0205E67
:10169000232B20937C0080917A00806480937A00D1
:1016A00080917A0086FDFCCF2091780060917900CE
:1016B00070E0762F6627882777FD8095982F622B1C
:1016C000089584B5836084BD85B5886085BD08951F
:1016D00084B58C7F84BD85B5877F85BD0895E0E89E
:1016E000F0E0808182608083E1E8F0E080818A61BF
:1016F00080838FE39CE99093870080938600089510
:10170000E0E8F0E080818D7F8083E1E8F0E0808197
:10171000807E808310928700109286000895E0E911
:10172000F0E0808182608083E1E9F0E080818A617D
:1017300080838FE39CE990939700809396000895AF
:10174000E0E9F0E080818D7F8083E1E9F0E0808155
:10175000807E808310929700109296000895E1ECAD
:10176000F0E080818B6080830895E1ECF0E080817F
:10177000847F80830895411551056105710521F02D
:1017800041505109610971095093870040938600C7
:1017900080E090E00895609186007091870080E07D
:1017A00090E06F5F7F4F8F4F9F4F08954115510518
:1017B0006105710521F0415051096109710950938A
:1017C00097004093960080E090E008956091960025
:1017D0007091970080E090E06F5F7F4F8F4F9F4F39
:1017E00008954093D10080E090E008956091D10089
:1017F00070E080E090E00895DC015096ED91FC915E
:101800005197208153968C91282381E090E011F428
:1018100080E090E00895CF93DF9300D000D0CDB763
:10182000DEB749835A836B837C83842F952FA62F41
:10183000B72F0097A105B10539F00197A109B109AA
:1018400089839A83AB83BC83898188BD80E090E0E3
:101850000F900F900F900F90DF91CF91089568B582
:1018600070E06F5F7F4F882777FD8095982F0895F0
:10187000FC01628573858485958508954115510520
:101880006105710521F04150510961097109DC01BF
:101890005796ED91FC9158975183408380E090E0FA
:1018A0000895DC015796ED91FC9158976081718104
:1018B00080E090E06F5F7F4F8F4F9F4F0895409380
:1018C000D20080E090E008956091D20070E080E066
:1018D00090E008958091C100992787FD9095892F08
:1018E000881F8827881F90E00895DC015096ED91AD
:1018F000FC91519753969C918081452B462B472B09
:1019000011F0892B02C090958923808380E090E0BC
:1019100008958091C100452B462B472B11F080681C
:1019200001C08F778093C10080E090E0089541E08E
:1019300050E002C0440F551F8A95E2F7662757FD15
:101940006095762F8091720290917302A09174023B
:10195000B0917502482359236A237B2381E090E0EC
:10196000452B462B472B11F480E090E008950F9310
:101970001F93CF93DF93EC0108811981C8010E9466
:10198000970CF801E859FD4F892B19F0808181509F
:1019900080838081811103C0EBA5FCA50995E889AE
:1019A000F98980819A89909589238083E1E0F0E02C
:1019B00002C0EE0FFF1F0A95E2F7AF01662757FD41
:1019C0006095762F00916E0210916F022091700247
:1019D000309171024023512362237323452B462B00
:1019E000472B39F4AC89BD898C919E8990958923C8
:1019F0008C93AF0140955095662757FD6095762FE3
:101A00008091720290917302A0917402B09175025C
:101A100084239523A623B7238093720290937302A5
:101A2000A0937402B0937502DF91CF911F910F9133
:101A30000895EF92FF920F931F93CF93DF93EC01E2
:101A4000F8808E859F858C0108591D4FF801E08034
:101A5000E11006C081E08083E9A5FAA5099507C0D9
:101A60000E94970C892B19F4E394F801E082E8892D
:101A7000F98980819A89892B8083EC89FD8980810D
:101A80002E89822340916E0250916F026091700204
:101A9000709171028823C9F081E090E00F2C02C0A0
:101AA000880F991F0A94E2F7AA2797FDA095BA2FED
:101AB000842B952BA62BB72B80936E0290936F02ED
:101AC000A0937002B09371021DC081E090E00F2CD2
:101AD00002C0880F991F0A94E2F780959095AA2773
:101AE00097FDA095BA2F84239523A623B72380932F
:101AF0006E0290936F02A0937002B0937102808186
:101B0000822B808341E050E002C0440F551FFA94BD
:101B1000E2F7662757FD6095762F809172029091CB
:101B20007302A0917402B0917502842B952BA62BA1
:101B3000B72B8093720290937302A0937402B093B8
:101B4000750280E090E0DF91CF911F910F91FF909F
:101B5000EF9008958091E80080FFFCCF089581E028
:101B60008093D70080EA8093D80082E189BD09B4D0
:101B700000FEFDCF80E98093D8001092E000109223
:101B8000F6011092F8011092F7018CE08093E200C8
:101B900080E090E0089580E090E00895CF93DF9397
:101BA0008091F601882389F1CFB7F89483E0809380
:101BB000E900A091F200FB01B0E0D3E0CF01861B69
:101BC000970B9A01A417B5070CF49D018217930790
:101BD00074F4D093E9002091E80025FD02C0CFBF46
:101BE00006C0D093E9008091F1008193E7CF23E014
:101BF0002093E9002091F200211105C02091E80016
:101C00002F772093E800CFBF02C085EF9FEFDF91D1
:101C1000CF910895E2EEF0E08081877F8083089580
:101C20008091F60190E008958091F7019091F8017C
:101C30000895EF92FF921F93CF93DF937C01CB0126
:101C40002091F601211103C085EF9FEF58C24FB7D5
:101C5000242FF89454E05093E90050910102552349
:101C600041F05091E80055FD02C04FBF3BC01092BB
:101C70000102A4E0B0E4CAE3D5E022C0122F4091F3
:101C8000F2005B2F541B452F652F70E086179707D6
:101C900008F4482F841B910950E04134510578F134
:101CA000F70140814093F100A7014F5F5F4F7A0138
:101CB0004091E80045FFC093E800D09300021FBFA9
:101CC000009709F41AC24091E400475E5091E80081
:101CD00055FDD4CF2FBF2091E400241306C081E02E
:101CE000809301028BEF9FEF0AC22091F60122231D
:101CF00009F4AACF2FB7F894A093E900E7CF465B89
:101D0000504DFA010C94442FF70140814093F100AB
:101D1000A7014F5F5F4F7A01F70140814093F100C7
:101D2000A7014F5F5F4F7A01F70140814093F100B7
:101D3000A7014F5F5F4F7A01F70140814093F100A7
:101D4000A7014F5F5F4F7A01F70140814093F10097
:101D5000A7014F5F5F4F7A01F70140814093F10087
:101D6000A7014F5F5F4F7A01F70140814093F10077
:101D7000A7014F5F5F4F7A01F70140814093F10067
:101D8000A7014F5F5F4F7A01F70140814093F10057
:101D9000A7014F5F5F4F7A01F70140814093F10047
:101DA000A7014F5F5F4F7A01F70140814093F10037
:101DB000A7014F5F5F4F7A01F70140814093F10027
:101DC000A7014F5F5F4F7A01F70140814093F10017
:101DD000A7014F5F5F4F7A01F70140814093F10007
:101DE000A7014F5F5F4F7A01F70140814093F100F7
:101DF000A7014F5F5F4F7A01F70140814093F100E7
:101E0000A7014F5F5F4F7A01F70140814093F100D6
:101E1000A7014F5F5F4F7A01F70140814093F100C6
:101E2000A7014F5F5F4F7A01F70140814093F100B6
:101E3000A7014F5F5F4F7A01F70140814093F100A6
:101E4000A7014F5F5F4F7A01F70140814093F10096
:101E5000A7014F5F5F4F7A01F70140814093F10086
:101E6000A7014F5F5F4F7A01F70140814093F10076
:101E7000A7014F5F5F4F7A01F70140814093F10066
:101E8000A7014F5F5F4F7A01F70140814093F10056
:101E9000A7014F5F5F4F7A01F70140814093F10046
:101EA000A7014F5F5F4F7A01F70140814093F10036
:101EB000A7014F5F5F4F7A01F70140814093F10026
:101EC000A7014F5F5F4F7A01F70140814093F10016
:101ED000A7014F5F5F4F7A01F70140814093F10006
:101EE000A7014F5F5F4F7A01F70140814093F100F6
:101EF000A7014F5F5F4F7A01F70140814093F100E6
:101F0000A7014F5F5F4F7A01F70140814093F100D5
:101F1000A7014F5F5F4F7A01F70140814093F100C5
:101F2000A7014F5F5F4F7A01F70140814093F100B5
:101F3000A7014F5F5F4F7A01F70140814093F100A5
:101F4000A7014F5F5F4F7A01F70140814093F10095
:101F5000A7014F5F5F4F7A01F70140814093F10085
:101F6000A7014F5F5F4F7A01F70140814093F10075
:101F7000A7014F5F5F4F7A01F70140814093F10065
:101F8000A7014F5F5F4F7A01F70140814093F10055
:101F9000A7014F5F5F4F7A01F70140814093F10045
:101FA000A7014F5F5F4F7A01F70140814093F10035
:101FB000A7014F5F5F4F7A01F70140814093F10025
:101FC000A7014F5F5F4F7A01F70140814093F10015
:101FD000A7014F5F5F4F7A01F70140814093F10005
:101FE000A7014F5F5F4F7A01F70140814093F100F5
:101FF000A7014F5F5F4F7A01F70140814093F100E5
:10200000A7014F5F5F4F7A01F70140814093F100D4
:10201000A7014F5F5F4F7A01F70140814093F100C4
:10202000A7014F5F5F4F7A01F70140814093F100B4
:10203000A7014F5F5F4F7A01F70140814093F100A4
:10204000A7014F5F5F4F7A01F70140814093F10094
:10205000A7014F5F5F4F7A01F70140814093F10084
:10206000A7014F5F5F4F7A01F70140814093F10074
:10207000A7014F5F5F4F7A01F70140814093F10064
:10208000A7014F5F5F4F7A01F70140814093F10054
:10209000A7014F5F5F4F7A01F70140814093F10044
:1020A000A7014F5F5F4F7A01F70140814093F10034
:1020B000A7014F5F5F4F7A01F70140814093F10024
:1020C000A7014F5F5F4F7A01F70140814093F10014
:1020D000A7014F5F5F4F7A01F70140814093F10004
:1020E000A7014F5F5F4F7A01F70140814093F100F4
:1020F000A7014F5F5F4F7A01D3CD80E090E0DF9181
:10210000CF911F91FF90EF900895CF93DF93CB0174
:10211000EA01209779F48091F601811102C085EFE0
:102120000FC08091F7019091F80180FFF8CF80E017
:1021300090E009C0BA010E94190E892B19F08FEFA7
:102140009FEF01C0CE01DF91CF910895E09176021B
:1021500086E0E89FF0011124E050FF4F80819181DB
:102160009093CD008093CC0010927C0210927B0261
:1021700010927A021092790282E08093C80088E976
:102180008093C90080E090E0089580E090E0089599
:10219000CA01FB019F01261B370B2817390744F49E
:1021A00021913091C80035FFFCCF2093CE00F2CFB3
:1021B0000895E9ECF0E08081877680830895CF93DD
:1021C000DF93CB01E0917B02F0917C0220E430E0D0
:1021D0002E1B3F0BC0917902D0917A02C20FD31F00
:1021E000CF73DD274C175D070CF4EA012C173D0770
:1021F0000CF4E901209749F1BF0163587D4FAE010E
:102200000E94612780917B0290917C028C0F9D1F20
:102210008F73992790937C0280937B021092BE0269
:102220001092BD022091790230917A02281B390B5D
:102230002F733327232B61F047E050E066E976E007
:102240008CE192E00E94130603C085EF9FEF01C06E
:10225000CE01DF91CF91089586E192E69F938F930F
:102260000E94AF250F900F9008958430910578F06B
:102270009F938F938EE292E69F938F930E94AF2558
:102280000F900F900F900F908AEE9FEF089580931C
:10229000760226E0289FF001299FF00D1124E050DE
:1022A000FF4F808191819093CD008093CC0080E09E
:1022B00090E008958F929F92AF92BF92CF92DF925B
:1022C000EF92FF920F931F93CF93DF93029764F0E7
:1022D000DB011296ED91FC911397808190E0C197FC
:1022E0000E9435117C0102C0E12CF12C04E011E0C8
:1022F000C0E0D0E082E1A82E82E6B82E94E1892EDB
:1023000092E6992E29E0C22E22E6D22E8091760204
:1023100090E0C817D90719F49F928F9202C0BF921C
:10232000AF920E94AF250F900F902196F801818106
:102330008F9380818F93DF93CF93DF92CF920E9410
:10234000AF250A5F1F4F0F900F900F900F900F90C7
:102350000F90C330D105D1F6C701DF91CF911F9106
:102360000F91FF90EF90DF90CF90BF90AF909F9034
:102370008F900895289A239A80E090E008958CB574
:102380008F778CBD8CB58F7B8CBD60E470E08091C5
:10239000A0059091A1050E94C92B60E470E0809196
:1023A000AA059091AB050C94C92B1F93CF93DF9393
:1023B000CB011FB7F894E0919E05F0919F0520E4B2
:1023C00030E02E1B3F0BC0919C05D0919D05C20FA4
:1023D000D31FCF73DD274C175D070CF4EA012C17D0
:1023E0003D070CF4E901209721F41FBF85EF9FEF13
:1023F0002DC06091A0057091A1056E0F7F1FAE01E9
:102400000E94612780919E0590919F058C0F9D1FD2
:102410008F73992790939F0580939E051092A30533
:102420001092A20520919C0530919D05281B390B27
:102430002F733327232B41F047E050E066E976E025
:1024400086E292E00E9413061FBFCE01DF91CF917A
:102450001F91089580E48CBD8CB580688CBD80E4AC
:1024600090E00E949B2C9093A1058093A00580E4AE
:1024700090E00E949B2C9093AB058093AA057698E0
:102480006E9A80E090E008958091A6059091A7054E
:10249000809590952091A8053091A905820F931FF2
:1024A0008F7399279A01841795070CF49C012115C5
:1024B000310511F1FB01CF01861B970B82179307A2
:1024C000C4F44191A091AA05B091AB058091A605F5
:1024D0009091A705A80FB91F4C938091A6059091E4
:1024E000A70501968F7399279093A7058093A6055A
:1024F000E2CF769AC901089585EF9FEF089540E0F5
:1025000050E062E070E086EA91E00E944D06909310
:1025100085058093840540E050E061E070E086EA44
:1025200091E00E944D069093AD078093AC0780E048
:1025300090E0089589E692E69F938F930E94AF25DD
:102540000F900F900895AF92BF92CF92DF92EF92CB
:10255000FF920F931F93CF93DF93C0E0D0E002E68A
:1025600012E68CE5E82E82E6F82E9AE5C92E92E670
:10257000D92E5E0187E0A822BB24A114B10451F436
:10258000DF93CF931F930F930E94AF250F900F906F
:102590000F900F9089911F928F93FF92EF920E945C
:1025A000AF250F900F900F900F9087E0A816B10401
:1025B00031F4DF92CF920E94AF250F900F90C1159A
:1025C00081E0D807B1F688E592E69F938F930E9449
:1025D000AF250F900F9080E090E0DF91CF911F9199
:1025E0000F91FF90EF90DF90CF90BF90AF90089544
:1025F000E1E6F0E080E8808310820E94F9260E94E4
:10260000B6280E94F92780E090E008950895CF93BE
:10261000DF93DC011496ED91FC911597E60FF71FFF
:1026200080819181A281B381EA0188839983AA8301
:10263000BB83232B59F084819581A681B7818C833C
:102640009D83AE83BF8388E090E002C084E090E089
:10265000DF91CF910895CF93DF93DC011696ED9132
:10266000FC911797EA0188819981AA81BB81E60FC5
:10267000F71F80839183A283B383232B59F08C812E
:102680009D81AE81BF8184839583A683B78388E0D3
:1026900090E002C084E090E0DF91CF910895CF9365
:1026A000DF93DA01EC01EC81FD81232B49F4E60F85
:1026B000F71F859194918D939C9382E090E009C0DF
:1026C0006E0F7F1F48E050E0CD010E94102F88E080
:1026D00090E0DF91CF910895FA01DC0114962D91DD
:1026E0003C911597260F371F48E050E0B901CF0104
:1026F0000E94612788E090E00895FA01DC011496B9
:102700008D919C911597232B41F4DC01A60FB71FE7
:102710008C91808381E090E00895680F791F48E0F4
:1027200050E0CF010E94612788E090E00895FA010F
:10273000DC0114968D919C911597232B51F4DC01AB
:10274000A60FB71F8D919C919183808382E090E0CA
:102750000895680F791F48E050E0CF010E9461277B
:1027600088E090E00895FA01DC0114962D913C91E7
:102770001597260F371F48E050E0B901CF010E949E
:10278000612788E090E00895FB01BA01DC0116960C
:102790008D919C911797232B41F4DA012C91E80F2E
:1027A000F91F208381E090E0089548E050E08E0F0B
:1027B0009F1F0E94612788E090E00895FB01BA0105
:1027C000DC0116968D919C911797232B51F4DA0119
:1027D0002D913C91E80FF91F3183208382E090E036
:1027E000089548E050E08E0F9F1F0E94612788E007
:1027F00090E008959B01BA01FC018681978148E031
:1028000050E0820F931F0E94612788E090E00895B6
:10281000CF93DF93FC01C481D581FE01E60FF71F42
:1028200085919591A591B491FA0180839183A283BA
:10283000B383232B81F0FB013496EC0FFD1F8591B0
:102840009591A591B491FA0184839583A683B7836A
:1028500088E090E002C084E090E0DF91CF9108959D
:10286000CF93DF93DA01EC01EC81FD81232B39F466
:10287000E60FF71FE491EC9381E090E009C06E0F42
:102880007F1F48E050E0CD010E94102F88E090E0CB
:10289000DF91CF910895DC0114966D917C9115978D
:1028A0001696ED91FC91179740E150E0828193815B
:1028B0000E94710797FF08C080E892E69F938F936C
:1028C0000E94AF250F900F900895CF93DF93EC01F6
:1028D000009789F1AC0161E070E082EB91E00E9429
:1028E0004D06009721F48091AC079091AD07998334
:1028F0008883892B19F48AEA92E617C0AE0162E058
:1029000070E082EB91E00E944D069B838A83892BC5
:1029100031F480918405909185059B838A838A8117
:102920009B81892B59F485E992E69F938F930E94AE
:10293000AF250F900F908FEF9FEF02C080E090E0E7
:10294000DF91CF9108958F929F92AF92BF92CF92D5
:10295000DF92EF92FF920F931F93CF93DF93CDB748
:10296000DEB7A4970FB6F894DEBF0FBECDBFDC0173
:102970001696ED90FC9017976701B4E0CB0ED11C32
:102980008091C3029091C402892B39F481E090E0D8
:102990009093C4028093C30219C0F701848995897A
:1029A000892BA1F08091AE079091AF07A091B0075D
:1029B000B091B1072091BF023091C002245F3F4F18
:1029C000281B390B37FF02C0158A148A8091AE0785
:1029D0009091AF07A091B007B091B1078093BF026B
:1029E0009093C002A093C102B093C202D7010D918F
:1029F0001C91119754966D917C91559740E150E050
:102A0000461B570B6C0D7D1DC8010E941B07181635
:102A10001906DCF0892B99F4C8010E94F106A70180
:102A200061E070E082EB91E00E944D06009721F496
:102A30008091AC079091AD07F70191838083D70116
:102A400055961C921E9254974AC1F70124893589E4
:102A5000280F391F358B248B2031310508F43FC1F5
:102A6000158A148A6681862F8E71823009F037C1EB
:102A7000858182958F7061706295607F682BF8E028
:102A80006F9FB00111246053784987E6683F78074B
:102A900008F057C048E050E0CE014B960E94102F3E
:102AA000D70117968C9186FF10C0EF8DF8A1019089
:102AB000F081E02D309709F412C140E050E0BE01F2
:102AC000655E7F4FC60109950AC18F718695AA245C
:102AD000A394B12C02C0AA0CBB1C8A95E2F7812CEE
:102AE000912C00E010E08B8D9C8D081719070CF0DD
:102AF0003DC06D8D7E8D680D791D4AE050E0CE01A0
:102B000041960E94102FEB89FC89459154912989A7
:102B10003A89F70184816581962F9F708217930708
:102B200050F08A0D9B1D019721503109240F351F4C
:102B3000281739079CF50F5F1F4FFAE08F0E911C85
:102B4000D2CFD70112968D919C9113970DEE1FEF66
:102B50002FEF3FEFF7010087118722873387278107
:102B60002062278340E150E0B60115C0E9A1FAA137
:102B7000D70112968D919C91139746E150E060E049
:102B800070E04483558366837783238120622383A7
:102B900040E150E0BF010E947107A1C0F701278109
:102BA000207830E0698D7A8D61157105E1F040E1A2
:102BB00050E0CE0101962BA33CA30E94102FD70119
:102BC0001796EC912BA13CA1E0FD7CC0EE7181E059
:102BD00090E08C0F9D1F8E0F911DFC0100811181D3
:102BE000A12CB12C04C0A12CB12C00E010E049A113
:102BF0005AA180E1F7013496DA0101900D928A958D
:102C0000E1F7DA0113968C911397806413968C93F5
:102C10000115110579F04C5F5F4FF70164818581E3
:102C2000782F7F7089899A89681B790BCE0141962C
:102C3000F80115C0A114B104A1F0A6014C5F5F4FCB
:102C4000D70114966C91149715968C91782F7F70FC
:102C500089899A89681B790BCE014196F5010995FE
:102C600002C08FEF9FEFD70112962D913C911397E1
:102C700097FF16C0E9A1FAA144275527481B590B15
:102C8000662757FD6095762F448355836683778347
:102C900083818062838340E150E0BF01C9017BCF23
:102CA00069A17AA140E150E0C9010E94710797FF34
:102CB00016C080E892E69F938F930E94AF250F90F5
:102CC0000F900DC0F0E03197EE71FF2781E090E0AA
:102CD0008C0F9D1FE80FF91FA084B18486CFA496A6
:102CE0000FB6F894DEBF0FBECDBFDF91CF911F911D
:102CF0000F91FF90EF90DF90CF90BF90AF909F909B
:102D00008F900895CF93DF93E82F492FEB0168E070
:102D100070E00E94302F2E2F342F37FF02C0295F22
:102D20003F4F93E0359527959A95E1F72F5F3F4FF9
:102D3000F901EE0FFF1FE20FF31F92A121E030E037
:102D4000082E01C0220F0A94EAF7CD2B11F0922B26
:102D500002C02095922392A3DF91CF9108959C0108
:102D600097FF02C0295F3F4F53E0359527955A954D
:102D7000E1F72F5F3F4FF901EE0FFF1FE20FF31F47
:102D800040A168E070E00E94302F21E030E001C0F7
:102D9000220F8A95EAF7422381E090E011F480E067
:102DA00090E008952FB7F894FC0197FD7F96A5E079
:102DB000F595E795AA95E1F7EE0FFF1FEE0FFF1FC0
:102DC000E60FF71F60E270E00E94302F41E050E014
:102DD00060E070E004C0440F551F661F771F8A959E
:102DE000D2F780819181A281B381842B952BA62B70
:102DF000B72B80839183A283B3832FBF08959C0157
:102E00004FB7F894FC0197FD7F9685E0F595E7951F
:102E10008A95E1F7EE0FFF1FEE0FFF1FE60FF71F7A
:102E200080819181A281B3814FBF2F71332704C06C
:102E3000B695A795979587952A95D2F7817099278A
:102E400008958FEF9FEF08958FEF9FEF08958FEF15
:102E50009FEF08958FEF9FEF08958FEF9FEF0895F5
:102E60008FEF9FEF08952F923F924F925F926F9254
:102E70007F928F929F92AF92BF92CF92DF92EF920A
:102E8000FF920F931F93CF93DF9300D000D000D019
:102E9000CDB7DEB77A836983890123E0880F991F54
:102EA0002A95E1F7452B11F4980102C028E030E0A3
:102EB0007C011E821D82ED81FE81E217F3070CF07A
:102EC00098C06D807E8077FE03C087E0680E711C1D
:102ED000B3E075946794BA95E1F7E981FA816E0ED3
:102EE0007F1E08301105A9F4F3014081C701F7FCEA
:102EF0000796F3E095958795FA95E1F70196FC0121
:102F0000EE0FFF1FE80FF91FC70187709927892B64
:102F100069F1CD80DE80D7FE03C0FFE0CF0ED11C6B
:102F200074E0D594C7947A95E1F7CC0CDD1C8981C7
:102F30009A81C80ED91EAD80BE80B7FE03C09FE146
:102F4000A90EB11C45E0B594A7944A95E1F7AA0CE7
:102F5000BB1CAA0CBB1CE981FA81AE0EBF1E212C42
:102F6000312C21012394812C912C2CC042A338C0F8
:102F70000031110559F10032110561F108301105D8
:102F8000D1F5F301808190E0A0E0B0E082219321AF
:102F9000A421B52161E070E0892B8A2B8B2B11F4E1
:102FA00060E070E0C4018E0D9F1D2B833C830E9466
:102FB0008216FFEF8F1A9F0A220C331C441C551CEB
:102FC0003C812B81801691069CF20AC0F60180811B
:102FD0009181DACFF50180819181A281B381D6CF31
:102FE0008D819E81800F911F9E838D83E00EF11E47
:102FF00062CFC90102C08AEE9FEF26960FB6F89401
:10300000DEBF0FBECDBFDF91CF911F910F91FF901B
:10301000EF90DF90CF90BF90AF909F908F907F9078
:103020006F905F904F903F902F900895CB01BA0121
:10303000A90128E030E00C943317CB01BA01A901B3
:1030400020E130E00C943317CB01BA01A90120E252
:1030500030E00C943317CB01BA01A90128E030E02D
:103060000C943317CB01BA01A90128E030E00C948D
:1030700033172F923F924F925F926F927F928F926F
:103080009F92AF92BF92CF92DF92EF92FF920F93F7
:103090001F93CF93DF93CDB7DEB728970FB6F89481
:1030A000DEBF0FBECDBF4B018901F3E0880F991F32
:1030B000FA95E1F7452B11F4190103C0E8E02E2E33
:1030C000312C7C0118861F827AED472E55245A94A4
:1030D000652C752C2AED3FEFEF81F885E215F3059D
:1030E0000CF09CC0CF80D884D7FE03C087E0C80E08
:1030F000D11C63E0D594C7946A95E1F7C80CD91C3C
:1031000000311105F1F000321105F1F00830110520
:1031100001F5C70187709927892B81F4C701F7FC56
:10312000079643E0959587954A95E1F70196FC014E
:10313000EE0FFF1FE80FF91F80A101C08AEEF60114
:103140008083F60131832083F601408251826282BE
:10315000738240E050E0BA01A12CB12CA016B10658
:103160002CF5C5018E0D9F1D2D833E8349835A8307
:103170006B837C830E94AF16AA2797FDA095BA2F78
:103180000A2C04C0880F991FAA1FBB1F0A94D2F7EC
:1031900049815A816B817C81482B592B6A2B7B2B6F
:1031A000FFEFAF1ABF0A3E812D81D8CF0031110544
:1031B00049F000321105B1F00830110589F5F6012A
:1031C000408323C0EF81F885F7FD3F9684E0F595B5
:1031D000E7958A95E1F7EE0FFF1FE80DF91D518382
:1031E000408313C0EF81F885F7FD7F96A5E0F59544
:1031F000E795AA95E1F7EE0FFF1FEE0FFF1FE80D11
:10320000F91D40835183628373838F819885800F7A
:10321000911F98878F83E00EF11E5ECFC10102C01F
:103220008AEE9FEF28960FB6F894DEBF0FBECDBF93
:10323000DF91CF911F910F91FF90EF90DF90CF9092
:10324000BF90AF909F908F907F906F905F904F90C6
:103250003F902F900895CB01BA01A90128E030E0FA
:103260000C943918CB01BA01A90120E130E00C948B
:103270003918CB01BA01A90120E230E00C943918C9
:103280008F929F92AF92BF92CF92DF92EF92FF9276
:103290000F931F93CF93DF93CDB7DEB728970FB669
:1032A000F894DEBF0FBECDBF7C016B018A015901CE
:1032B0004115510511F4490103C0B8E28B2E912C40
:1032C0009501A801BE016F5F7F4FC7010E943918A9
:1032D00097FD20C0F40197FC3796CF01A3E09595A8
:1032E0008795AA95E1F7FE013196D6019D012C192B
:1032F0003D09281739072CF43D912081232B219378
:10330000F5CF9801A501BE016F5F7F4FC7010E94F5
:10331000331702C08FEF9FEF28960FB6F894DEBFE9
:103320000FBECDBFDF91CF911F910F91FF90EF9016
:10333000DF90CF90BF90AF909F908F900895CB017A
:10334000BA01A90120E130E00C944019CB01BA0187
:10335000A90120E230E00C9440198F929F92AF9225
:10336000BF92CF92DF92EF92FF920F931F93CF9372
:10337000DF93CDB7DEB728970FB6F894DEBF0FBE48
:10338000CDBF7C016B018A0159014115510511F432
:10339000490103C038E2832E912C9501A801BE019A
:1033A0006F5F7F4FC7010E94391897FD20C0F4015D
:1033B00097FC3796CF0123E0959587952A95E1F7FD
:1033C000FE013196D6019D012C193D0928173907B8
:1033D0002CF43D912081232B2193F5CF9801A50159
:1033E000BE016F5F7F4FC7010E94331702C08FEF8E
:1033F0009FEF28960FB6F894DEBF0FBECDBFDF91CA
:10340000CF911F910F91FF90EF90DF90CF90BF90E1
:10341000AF909F908F900895CB01BA01A90120E150
:1034200030E00C94AD19CB01BA01A90120E230E0E3
:103430000C94AD198F929F92AF92BF92CF92DF9270
:10344000EF92FF920F931F93CF93DF93CDB7DEB729
:1034500028970FB6F894DEBF0FBECDBF20E030E056
:10346000AE014F5F5F4F60E070E080E090E00E944F
:10347000391920E030E0AE014B5F5F4F64E070E04F
:1034800080E090E00E94391909811A812B813C81EA
:10349000CD80DE80EF80F8848091EF029091F00281
:1034A000A091F102B091F2028C219D21AE21BF21A9
:1034B000EBE0F3E04481558166817781842B952B85
:1034C000A62BB72B4091EB025091EC026091ED02DC
:1034D0007091EE02402351236223732380809180F8
:1034E000A280B380482959296A297B290095109523
:1034F000209530958090E3029090E402A090E50240
:10350000B090E602082119212A213B21402B512BA2
:10351000622B732B4083518362837383B701A601AF
:1035200040955095609570950091E7021091E802E2
:103530002091E9023091EA02402351236223732350
:10354000842B952BA62BB72B84839583A683B783D7
:1035500028960FB6F894DEBF0FBECDBFDF91CF9196
:103560001F910F91FF90EF90DF90CF90BF90AF90A1
:103570009F908F900895CF92DF92EF92FF920F93DA
:103580001F93CF93DF93CDB7DEB728970FB6F8948C
:10359000DEBF0FBECDBF6A01CB01855F9C4F7C01B2
:1035A000232B19F404E010E002C001E010E048E031
:1035B00050E06BE073E0CE0101960E946127D601D6
:1035C000F70180818D931192CF018E199F09801789
:1035D0009107BCF30E941A1A89819A81AB81BC8140
:1035E000892B8A2B8B2B49F48D819E81AF81B885E5
:1035F000892B8A2B8B2B09F441C080910B0390916E
:103600000C03A0910D03B0910E03892B8A2B8B2BF9
:10361000A9F540910F03509110036091110370912F
:103620001203452B462B472B49F580ED97E6805D2D
:10363000974643E0959587954A95E1F79093E00288
:103640008093DF021092E2021092E10247E050E024
:103650006FED72E086EB96E00E940829892B71F0ED
:1036600082E191E09F938F938AE093E69F938F93FB
:103670000E94AF250F900F900F900F90C8012896D1
:103680000FB6F894DEBF0FBECDBFDF91CF911F9173
:103690000F91FF90EF90DF90CF900895DC0114968A
:1036A000ED91FC9115978091EB029091EC02A09125
:1036B000ED02B091EE0280959095A095B095408175
:1036C00051816281738184239523A623B72340917E
:1036D000E3025091E4026091E5027091E6024095A8
:1036E00050956095709584239523A623B723409128
:1036F0000B0350910C0360910D0370910E03842B0A
:10370000952BA62BB72B80930B0390930C03A093C0
:103710000D03B0930E0310821182128213828091E6
:10372000EF029091F002A091F102B091F202809527
:103730009095A095B09544815581668177818423C9
:103740009523A623B7234091E7025091E8026091A8
:10375000E9027091EA024095509560957095842336
:103760009523A623B72340910F0350911003609136
:10377000110370911203842B952BA62BB72B8093EA
:103780000F0390931003A0931103B09312031482BC
:103790001582168217820E941A1A80ED97E6805DC4
:1037A000974653E0959587955A95E1F79093DC02FB
:1037B0008093DB0280910B0390910C03A0910D0389
:1037C000B0910E03892B8A2B8B2B89F431E020E0FA
:1037D00080910F0390911003A0911103B0911203F7
:1037E000892B8A2B8B2B09F430E0C90102C091E0B0
:1037F00080E09093DD028093DE0247E050E06BEDC5
:1038000072E086EB96E00C940829AF92BF92CF92BB
:10381000DF92EF92FF920F931F93CF93DF936A0192
:10382000232B21F4F4E0EF2EF12C03C0EE24E394DB
:10383000F12CEB0186015801F801808181FF05C060
:1038400063E073E0CE010E94D216F801808180FF10
:1038500005C06BEF72E0CE010E94D216F8018081A4
:1038600082FF05C06BEE72E0CE010E94D216F80115
:10387000808183FF05C063EE72E0CE010E94D21604
:10388000F801808187FF05C063EF72E0CE010E94DE
:10389000D2160F5F1F4FF501608170E0CE010E94CC
:1038A000E10A97FD08C02196C8018C199D098E1563
:1038B0009F050CF2C701DF91CF911F910F91FF90EF
:1038C000EF90DF90CF90BF90AF900895AF92BF92EE
:1038D000CF92DF92EF92FF920F931F93CF93DF93DC
:1038E0006A01232B21F4B4E0EB2EF12C03C0EE246B
:1038F000E394F12CE6015B01AC18BD0818828E013F
:103900000A0D1B1D63E073E0C8010E94FF16892B9E
:1039100019F08881826088836BEF72E0C8010E9491
:10392000FF16892B19F08881816088836BEE72E025
:10393000C8010E94FF16892B19F088818460888352
:1039400063EE72E0C8010E94FF16892B19F088818E
:103950008860888363EF72E0C8010E94FF16892B9C
:1039600019F08881806888832196CE018C199D0981
:103970008E159F051CF2C701DF91CF911F910F910A
:10398000FF90EF90DF90CF90BF90AF900895AF92EF
:10399000BF92CF92DF92EF92FF920F931F93CF933C
:1039A000DF93EB01452B61F4A90137FF02C0495FAA
:1039B0005F4F8A0163E0159507956A95E1F702C0AC
:1039C00001E010E0FE016C01CC1ADD0A58E0A52EE2
:1039D000B12CCF018C1B9D0B801791072CF5960104
:1039E0002E0F3F1FD90137FD179683E0B595A79598
:1039F0008A95E1F71196CD01880F991F8A0F9B1FB9
:103A0000DC019196EC90F12CC901B5010E94302F98
:103A100002C0F594E7948A95E2F7E0FE02C082E0E6
:103A200001C081E08193D5CFC801DF91CF911F9173
:103A30000F91FF90EF90DF90CF90BF90AF900895DF
:103A4000CB01BA01A90128E030E00C94C71CCB01DE
:103A5000BA01A90120E130E00C94C71CCB01BA01E6
:103A6000A90120E230E00C94C71C2F923F924F92A4
:103A70005F926F927F928F929F92AF92BF92CF92FE
:103A8000DF92EF92FF920F931F93CF93DF934C013E
:103A9000452B61F4790137FF03C027E0E20EF11CEA
:103AA000D3E0F594E794DA95E1F703C0C8E0EC2E93
:103AB000F12C8B01C12CD12CA8E04A2E512CAA2428
:103AC000A394B12CCE14DF040CF040C0F801319067
:103AD0008F01832D83708330A9F1E601C80DD91DB4
:103AE000CE010E94AF169C01CE01B2010E94302F80
:103AF000282EAE01D7FF02C0495F5F4FE3E0559526
:103B00004795EA95E1F74F5F5F4F3A01660C771CE6
:103B1000640E751EB901CE010E948216F30181A1C7
:103B2000950102C0220F331F2A94E2F731FE02C032
:103B3000822B03C019012094822181A33FEFC31A75
:103B4000D30AC0CF7AEEE72EFF24FA94C701DF91A3
:103B5000CF911F910F91FF90EF90DF90CF90BF908A
:103B6000AF909F908F907F906F905F904F903F901D
:103B70002F900895CB01BA01A90128E030E00C9400
:103B8000351DCB01BA01A90120E130E00C94351DAF
:103B9000CB01BA01A90120E230E00C94351D8091DF
:103BA0007A00992787FD9095A92FB92F8827B7FD0F
:103BB00083959927AA27BB27FA0180839183A28343
:103BC000B38380E090E00895FA0180819181A28121
:103BD000B381892B8A2B8B2B31F00E94270B80918C
:103BE0007A00806803C080917A008F7780937A0092
:103BF00080E090E00895CF92DF92EF92FF920F93D2
:103C00001F93CF93DF93CDB7DEB72A970FB6F89403
:103C1000DEBF0FBECDBF6B018A017B0136E0F6949B
:103C2000E7943A95E1F726E02E9DB0012F9D700DA7
:103C300011246250704A46E050E0CE0101960E9485
:103C4000102FB6016F73772764307105E1F118F416
:103C5000672B49F057C068307105D1F16C307105A0
:103C600009F440C04FC081E48F838AE0E816F10474
:103C700038F0C7016AE070E00E941C2F605D02C04E
:103C800060E36E0D6887EAE0EE16F10438F0C701D4
:103C90006AE070E00E941C2F805D01C080E089878F
:103CA0001A8644E050E0BE01695F7F4FC8010E9460
:103CB0006127F80180819381908383838181928140
:103CC000918382831CC0898190E0A0E0B0E004C0B1
:103CD0008B819C81AD81BE81F80180839183A28319
:103CE000B3830DC080917A0087FF0FC0CE0101968B
:103CF0000E943A0BF801608371838283938380E092
:103D000090E005C08AEE9FEF02C083EF9FEF2A96F6
:103D10000FB6F894DEBF0FBECDBFDF91CF911F91DC
:103D20000F91FF90EF90DF90CF900895CF92DF92A8
:103D3000EF92FF920F931F93CF93DF93CDB7DEB730
:103D4000AD970FB6F894DEBF0FBECDBF6B017A0101
:103D50008B0186E0169507958A95E1F72DE2209F65
:103D6000B001219F700D11246A5D7F494DE250E042
:103D7000CE0101960E94102F1A830983B6016F733A
:103D800077276830710509F445C038F4611571056D
:103D900089F06430710501F178C06031710509F472
:103DA00064C06431710509F46DC06C30710509F0AF
:103DB0006CC036C044E050E0BE016D5F7F4FC7016C
:103DC0000E946127F70180819381908383838181A1
:103DD00092819183828353C00F81188529853A850A
:103DE0003327F70100831183228333838AA19BA1A8
:103DF000892B29F0316000831183228333838CA1C6
:103E00009DA1892BE1F1F70180819181A281B3818C
:103E1000B26026C08B859C85AD85BE85F70120C02C
:103E2000C8010E94970C41E050E060E070E0892BEF
:103E300019F440E050E0BA01F701408351836283F6
:103E40007383EEA1FFA13097D1F0CE0101960995C1
:103E5000892BA9F0F70180819181A281B3818260D1
:103E600080839183A283B3830AC0EE8DFF8DCE0140
:103E700001960995F701608371838283938380E0C3
:103E800090E005C0E8A1F9A1F2CF8AEE9FEFAD96D0
:103E90000FB6F894DEBF0FBECDBFDF91CF911F915B
:103EA0000F91FF90EF90DF90CF900895CF92DF9227
:103EB000EF92FF920F931F93CF93DF93CDB7DEB7AF
:103EC000AD970FB6F894DEBF0FBECDBF7B018A0160
:103ED0006B0126E0D694C7942A95E1F72DE22C9D3C
:103EE000B0012D9D700D11246A5D7F494DE250E0B7
:103EF000CE0101960E94102FDA82C982B7016F733A
:103F000077276031710569F16431710591F16C3089
:103F10007105D1F5D8018C9180FF07C0EA8DFB8D2A
:103F2000CE01019609957C0107C0EC8DFD8DCE0177
:103F300001960995E12CF12CE8A5F9A5309739F106
:103F4000D8014D915D916D917C91769567955795CE
:103F500047954170552766277727CE010196099529
:103F600016C0F8014081518162817381EAA1FBA1F1
:103F700007C0D8014D915D916D917C91ECA1FDA19F
:103F8000CE010196099504C08AEE9FEF01C0C701DA
:103F9000AD960FB6F894DEBF0FBECDBFDF91CF91C7
:103FA0001F910F91FF90EF90DF90CF90089580E0E8
:103FB00090E00895452B41F084EC94E69F938F9315
:103FC0000E94AF250F900F900895CF93DF93FC01CF
:103FD000C481D58188819981809708F049C08A8100
:103FE0009B81892B09F444C040E150E060E070E01F
:103FF00083E393E00E949027109235032881398152
:10400000C90180529C4F880F991F880F991F8C7F80
:104010009F7080933303892F8F7080618093340366
:1040200085E08093360381E090E002C0880F991FFD
:104030002A95E2F7AA2797FDA095BA2F8093370318
:1040400090933803A0933903B0933A0347E050E0CC
:1040500063E373E082EB96E00E94082997FF08C0B3
:104060008BEA94E69F938F930E94AF250F900F9059
:10407000DF91CF91089580EF97E6805D974623E02A
:10408000959587952A95E1F7909348038093470388
:1040900081E090E090934A038093490347E050E029
:1040A00067E473E086EB96E00E940829892B41F0D3
:1040B00081E295E69F938F930E94AF250F900F901A
:1040C00008954F925F926F927F92AF92BF92CF927C
:1040D000DF92EF92FF920F931F93CF93DF937C01B8
:1040E0006B015A01232B19F008E010E002C004E034
:1040F00010E0C0E0D0E0FE01EC7FEA0DFB1D408047
:10410000518062807380F701808191818C0D9D1DAB
:104110008C0F9D1F80319105A9F1E8F40897C9F52E
:10412000C20199279093500380934F03BB27A72D7B
:10413000962D852D9F70909354038093530344E1F3
:1041400076946794579447944A95D1F750925203C6
:104150004092510317C084319105A1F04897C9F4EA
:1041600040FC05C0842D8270809358030BC047E04B
:1041700050E060E070E08AEB96E00E94082997FF2B
:10418000F1CF09C02496C017D10708F4B4CFC801F5
:1041900002C08FEF9FEFDF91CF911F910F91FF90A2
:1041A000EF90DF90CF90BF90AF907F906F905F9037
:1041B0004F9008952F923F924F925F926F927F920D
:1041C0008F929F92AF92BF92CF92DF92EF92FF9227
:1041D0000F931F93CF93DF934C016B015A01232B55
:1041E00021F078E0E72EF12C03C064E0E62EF12CFC
:1041F00000EF17E6005D174633E0159507953A95F1
:10420000E1F7C0E0D0E040E8442E512C612C712C45
:104210005AE0252E55E6352EFE01EC7FEA0DFB1DFA
:10422000D4018D919C918C0D9D1D8C0F9D1F803113
:10423000910509F495C030F48830910579F00C9718
:10424000B1F19EC08831910509F48AC08032910590
:1042500009F48BC0449709F093C082C08091530346
:1042600090915403AC0160E070E0762F652F542FDD
:1042700044278091510390915203AA2797FDA0955E
:10428000BA2FDC0199278827482B592B6A2B7B2BC7
:1042900080914F0390915003A0E0B0E0482B592B40
:1042A0006A2B7B2B408351836283738362C080912E
:1042B000D90390E02091DA03821B91098F77992727
:1042C000AC0160E070E0762F652F542F4427809179
:1042D0005703482B2091DC038091DB0390E080950D
:1042E0009095820F911D8F779927A0E0B0E0DC01B7
:1042F00099278827482B592B6A2B7B2B4083518386
:104300006283738380915703882399F11093440348
:1043100000934303109246031092450347E050E098
:1043200063E473E086EB96E00E940829892B31F064
:104330003F922F920E94AF250F900F908091DD0346
:104340009DEF980F9230A8F08850823090F047E0AF
:1043500050E061E070E08AEB96E00E94082909C015
:10436000108211821282138204C0408251826282C2
:1043700073822496CE15DF0508F44ECFC70102C024
:104380008FEF9FEFDF91CF911F910F91FF90EF90F3
:10439000DF90CF90BF90AF909F908F907F906F9065
:1043A0005F904F903F902F900895519A892B19F06C
:1043B000599A5198089559980895589A509808957F
:1043C000509A892B11F00C94DD2158980895509A39
:1043D0000E94DD218091AE079091AF07A091B007B8
:1043E000B091B10720914D0330914E03280F391F32
:1043F000489910C08091AE079091AF07A091B00787
:10440000B091B107A901481B590B57FFF1CF82E9C1
:104410009FEF089580E090E00895CF93C82F80E04B
:1044200090E00E94D5210E94E72181E090E00E9467
:10443000D521C0935703C13011F08BE001C080E05B
:104440008093DD03CF910C943B20CF92DF92EF92CB
:10445000FF920F931F93CF93DF936A01232B19F0E1
:10446000C8E0D0E002C0C1E0D0E00091DC0310E081
:104470008091DB0390E07C01E094F094E00EF11E6B
:10448000E894E7F8FF24EC16FD060CF45CC02FE777
:1044900030E0281B390B020F131F0F77112720174D
:1044A00031071CF489010F5F1F4FC017D1070CF4AF
:1044B0008E01A801B601875A9C4F0E946127C01B3C
:1044C000D10B1C161D0684F4E01AF10ACE15DF0587
:1044D0000CF47E01B601600F711FA70189E593E01E
:1044E0000E9461270E0D1F1D2091DB03200F2F77E7
:1044F0002093DB038091DD03843041F530E080912F
:10450000DC03281B31092F773327809153039091C7
:1045100054034091550350915603841B950B8937E2
:10452000910510F088E790E02817390778F083E0CC
:104530008093DD0347E050E060E070E08AEB96E0B6
:104540000E94082903C08AEE9FEF01C0CE01DF91CF
:10455000CF911F910F91FF90EF90DF90CF90089532
:10456000EF92FF920F931F93CF93DF93C7E0D0E0BA
:10457000E82EF12CC7010C2E02C0959587950A9460
:10458000E2F7817099270E94D5210E94E72197FFC9
:1045900003C082E99FEF1BC080E090E00E94E02111
:1045A000219740F781E090E00E94D5210E94E72109
:1045B00097FDEFCFC9B180E090E00E94E021C1FB00
:1045C000002700F910E088279927801B910BDF91C5
:1045D000CF911F910F91FF90EF900895CF92DF92AE
:1045E000EF92FF920F931F93CF93DF937A01232BC8
:1045F00019F008E010E002C001E010E0C091D9031A
:10460000D0E06091DA0370E06E01C61AD70AE89430
:10461000C7F8DD24C016D1060CF441C020E830E014
:10462000261B370BC20FD31FCF77DD272C173D0773
:104630000CF4E9010C171D070CF4E801675A7C4FD4
:10464000AE01C7010E9461270C1B1D0B101611063D
:1046500084F4CC1ADD0A0C151D050CF46801A601C2
:1046600069E573E0C7018C0F9D1F0E946127CC0D87
:10467000DD1D8091DA038C0F8F778093DA038091B0
:10468000DD03893079F488E08093DD0347E050E072
:1046900060E070E08AEB96E00E94082903C08AEE91
:1046A0009FEF01C0C801DF91CF911F910F91FF9043
:1046B000EF90DF90CF9008956F927F928F929F92AC
:1046C000AF92BF92CF92DF92EF92FF920F931F9320
:1046D000CF93DF93FC01848195819927009749F05E
:1046E0008130910509F084C1109257031092DD03C7
:1046F0008EC10AEF10E0EE24E394F12CF8E0DF2EF7
:10470000A4E0BA2EBAE0AB2EC7E09C2ED6E08D2EE8
:1047100083E0782E92E0C92E10934E0300934D0350
:10472000F0924C03E0924B038091DD0390E08B30DC
:10473000910508F06CC1FC01E557F04D0C94442F35
:1047400080E090E00E94D52180E090E00E94E0218E
:1047500081E01FC08091510390915203892B39F061
:1047600081E02091530330915403232B09F080E022
:1047700090914F03892B0E94B02297FD22C0C092D6
:10478000DD03CACF8091530390915403892B21F408
:1047900085E08093DD03C0CF10925603109255033D
:1047A0007092DD03B9CFE091DC03F0E0E55BFC4FF4
:1047B00086850E94B0222091DB0397FF04C02093DE
:1047C000DC0380E805C18091550390915603019662
:1047D00090935603809355036091DC036F5F6F776E
:1047E0006093DC0340915303509154038417950761
:1047F00019F42093DC03CCCF30E0261B31092F774E
:104800003327232B59F4481B590B141615060CF0AB
:10481000FCC0C09257030E943B20F7C083E0809306
:10482000DD0331E020E0843009F0CBC0C9C08091C5
:10483000510390915203892B09F4C9C0809153030D
:1048400090915403892B19F4D092DD0310C081E0BC
:1048500090E00E94D5210E94E72180E090E00E9434
:10486000D52180E090E00E94E0218092DD0310924B
:1048700056031092550350CF80914F0381600E94E0
:10488000B02297FD9ECF9092DD0346CF81E090E06D
:1048900020915103309152032F3F3F4F11F080E0A0
:1048A00090E09195819591099093560380935503DB
:1048B000D092DD0331CF81E090E00E94D521C8E0A5
:1048C000D0E0612C0E94E72197FD0CC0660C499B4B
:1048D00003C0262D2160622E80E090E00E94E0213E
:1048E000219781F78091D90390E0FC01E55BFC4FB3
:1048F000668640915503509156034F3F5F4FB9F480
:10490000262D30E04091DA0380959095840F911D1B
:104910008F7799278217930710F481E859C0109276
:104920005603109255033093520320935103809104
:104930005503909156030196909356038093550327
:10494000C1E0D0E0209151033091520382179307C8
:1049500011F0C0E0D0E0209721F480E090E00E94C8
:10496000D5210E94E72197FD04C080E090E00E94DD
:10497000E0218091D9038F5F8F778093D903CD2B6E
:1049800019F0A092DD03C8CE2091DA0390E0809563
:104990009095820F911D8F7799278837910529F47B
:1049A000B09257030E943B2002C0892B11F088E08F
:1049B00001C089E08093DD0331E020E0893009F413
:1049C00030E0832F922F892B09F0A6CE20C081E002
:1049D000DF91CF911F910F91FF90EF90DF90CF90DB
:1049E000BF90AF909F908F907F906F900C940D220E
:1049F0009F938F9387E395E69F938F930E94AF25B4
:104A00000F900F900F900F9002C084E008CFDF91BD
:104A1000CF911F910F91FF90EF90DF90CF90BF90BB
:104A2000AF909F908F907F906F90089500005353A8
:104A3000004B435349534F4D4F53494D00003844A9
:104A400000003944003031440031314400304350DB
:104A50000031435000324350003343500034435040
:104A600000354350000035440033314400003344E6
:104A70000000324431445852314458540000344408
:104A8000444C585400323144000036440030455004
:104A900000314550425748230033455000344550BB
:104AA000003545504B4853480037455000003541CC
:104AB000000034410032465000334650000033417C
:104AC0000000324100003141000030410000000090
:104AD000070707070000000000000707070700009E
:104AE00007000707000000000000000007070000A3
:104AF000070707070000000000000000000000009A
:104B000000000000000000000000000000000000A5
:104B1000000000000000000000000000CF93DF93C1
:104B2000AB01BC018EED93E00E94BD25EC018EED42
:104B300093E00E94EA27CE01DF91CF910895CF93B1
:104B4000DF93CDB7DEB7AE01475F5F4F6F817885EA
:104B50008D819E810E94BD25DF91CF910895CF93D5
:104B6000DF93CDB7DEB7FE01359681919191BF01FC
:104B70000E948E25DF91CF9108952F923F924F9200
:104B80005F926F927F928F929F92AF92BF92CF92DD
:104B9000DF92EF92FF920F931F93CF93DF93CDB7E6
:104BA000DEB764970FB6F894DEBF0FBECDBF3C01F1
:104BB0007C8B6B8BDA019C01AE014F5F5F4F7A01FA
:104BC000E0E12E2E312CEB89FC898491882309F4B5
:104BD000ECC0853209F05FC0AA24A394B12C60E236
:104BE000462E512C7AE0C72ED12CEB89FC893196C8
:104BF000FC8BEB8B8491843609F45DC0A8F48A3277
:104C000029F138F4882309F4D0C0853209F443C06F
:104C100021C0883509F44CC0833631F18033D1F49A
:104C200040E3442E512CE1CF803709F441C038F4E1
:104C30008E3609F4B4C0A0F58936E9F10BC085378A
:104C4000D1F18837A9F18337B1F004C0CD90DC9061
:104C5000119712969FEC980F993038F6A82EB12C28
:104C6000F0E3AF1AB108C1CF8C91F90180832F5FB7
:104C70003F4F129694C0FD01408151811296C901A7
:104C80009C01FA016191AF01662309F488C0FC011F
:104C90006193CF01F5CFF90180832F5F3F4F7FC034
:104CA000FAE0CF16D10439F488E0C82ED12C03C025
:104CB00090E1C92ED12CAD014E5F5F4F5A8B498BCD
:104CC0008D919C9197FF0AC05AE0C516D10431F42A
:104CD00091958195910901E010E002C000E010E09B
:104CE000FE0171964F01A4014E195F09009791F0E2
:104CF0008E149F0461F0B6010E941C2FDC01A65D9A
:104D0000BE4F8C91F40182934F01CB01ECCF40E078
:104D100050E007C04031510521F4F0E3F88B4FE03B
:104D200050E00115110581F080E24816510451F45C
:104D300041505109D701A40FB51F9DE29C9300E09B
:104D400010E002C001E010E0C1018A199B09800F48
:104D5000911F841795073CF441505109D701A40FC6
:104D6000B51F4C92F6CF012B39F041505109D701B4
:104D7000A40FB51FEDE2EC93C101841B950BD90183
:104D8000B701640F751FFB0160816D934F5F5F4F2B
:104D900040315105A9F7280F391FA989BA89EB8934
:104DA000FC893196FC8BEB8B0ECFF9011082C90187
:104DB0008619970964960FB6F894DEBF0FBECDBF73
:104DC000DF91CF911F910F91FF90EF90DF90CF90E7
:104DD000BF90AF909F908F907F906F905F904F901B
:104DE0003F902F90089582E189BD09B400FEFDCF68
:104DF000089584E085BD8AEF87BD81E080936E00D1
:104E0000089580EA8093D800089580E98093D800BF
:104E1000089581E88093D7000895FC01DB012D916E
:104E2000BD0121932111FACF08959C01F9012F5F53
:104E30003F4F40814111FACF9F01281B390BC90117
:104E400008959C01680F791FF9012617370729F487
:104E50009F01281B390BC90108952F5F3F4F4081E7
:104E60004111F2CFF5CFFB01DC012D91CD01319144
:104E7000231729F0231740F48FEF9FEF0895211196
:104E8000F3CF80E090E0089581E090E00895FB0189
:104E9000480F591F8417950789F0DC012D91CD012A
:104EA0003191231729F0231730F48FEF9FEF0895E6
:104EB0002111F0CF03C081E090E0089580E090E000
:104EC0000895CF93DF939C01262B372B20FD1BC029
:104ED000FB01DC019A012230310538F0C191D191FA
:104EE000CD93DD9322503109F6CF9A01369527955F
:104EF000F901EE0FFF1F4E1B5F0BDC01AE0FBF1F52
:104F00006E0F7F1F01C0DC01FB01460F571FE41726
:104F1000F50719F021912D93FACFDF91CF910895E4
:104F2000CF92DF92EF92FF920F931F9380FD23C0E9
:104F30006B01DD24EE24D7FCE094FE2C3E2D2D2DBC
:104F40001C2D00270C291D292E293F29DC01FA01DF
:104F5000E230F10520F00D931D933297F9CFFA015D
:104F6000F695E7959F01220F331F421B530BF90162
:104F7000E80FF91F01C0FC014E0F5F1FE417F50792
:104F800011F06193FBCF1F910F91FF90EF90DF9095
:104F9000CF9008950895CF93DF9300D0CDB7DEB7BB
:104FA0009A8389830A9721F48DE090E00E94CB27B1
:104FB0008091840590918505009739F041E050E09B
:104FC000BE016F5F7F4F0E9471070F900F90DF91BE
:104FD000CF910895CF93DF93EC018991882321F03D
:104FE00090E00E94CB27F9CF80E090E0DF91CF9155
:104FF0000895CF93DF93C8EED1E081E0C63FD80794
:1050000020F4E991F9910995F8CFC8EED1E081E05B
:10501000C83ED80720F4E991F9910995F8CF80E0CE
:1050200090E0DF91CF9108950F931F934091AE07C9
:105030005091AF076091B0077091B1074F5F5F4F1C
:105040006F4F7F4F0091AE071091AF072091B007CF
:105050003091B107041715072607370799F79C0108
:10506000121613061CF421503109FACF8091AE07B5
:105070009091AF07A091B007B091B107841B950B39
:10508000A60BB70B1F910F910895EF92FF920F930C
:105090001F93CF93DF93C0E0D2E000E012E0CE0197
:1050A0000E941428892B29F4C00FD11F000F111F53
:1050B000F6CFD595C79515950795159507950115C3
:1050C000110589F07E01E00EF11EC7010E9414282F
:1050D000892B09F07E0117FF02C00F5F1F4F159546
:1050E0000795E701ECCFD0934304C093420480E0DE
:1050F00090E0DF91CF911F910F91FF90EF90089575
:10510000CF93DF93FC01C0914204D091430420E18E
:1051100037E2C29FC001C39F900DD29F900D112412
:1051200060EA7FE00E94302FE13187E2F80750F01B
:105130009B01121613061CF421503109FACFE051DD
:10514000F742F2CFEC9FC001ED9F900DFC9F900DB8
:10515000112460EA7FE00E941C2F6115710519F08F
:1051600061507109FACFDF91CF9108950F931F938A
:10517000CF93DF93C6E8D6E086E0CA3CD807D8F5DF
:1051800044E050E0BE0186E794E00E94102F0091B9
:10519000760410917704809178049091790408172F
:1051A000190739F148E050E0B8018EE694E00E941A
:1051B000102F609170047091710446E050E088E611
:1051C00094E00E94102F88E694E0909371048093FD
:1051D0007004D0936F04C0936E04E0916804F09162
:1051E0006904309719F08EE694E00995085F1F4F27
:1051F000D2CF2496C1CF80E490E090937B0580933A
:105200007A0580E090E0DF91CF911F910F91089592
:10521000CF93CFB7F894E0917E05F0917F05409150
:105220007A0550917B05415051099F012095309599
:10523000A0917C05B0917D052A0F3B1F24233523C7
:10524000232B21F4CFBF84EF9FEF16C09F012F5F68
:105250003F4F2423352330937F0520937E05CFBF16
:10526000EE0FFF1FEE0FFF1FE658FB4F73836283A5
:105270009183808380E090E0CF9108950F931F93F6
:10528000CF93DF938B0144E050E0BC0184E694E0CF
:105290000E94102FC0916404D0916504809166042F
:1052A00090916704C817D90731F148E050E0BE017A
:1052B0008CE594E00E94102F60915E0470915F0471
:1052C00046E050E086E594E00E94102F86E594E0E9
:1052D00090935F0480935E041093610400936004D4
:1052E000E0915804F0915904309719F08CE594E05E
:1052F00009952896D3CF80E090E0DF91CF911F9160
:105300000F91089520917A0530917B052150310944
:1053100080917E0590917F0540917C0550917D059F
:10532000841B950B822393230895CF92DF92EF92F3
:10533000FF920F931F93CF93DF930E9482296C01FA
:10534000E12CF12CEC14FD040CF05CC0C0917C0548
:10535000D0917D05CC0FDD1FCC0FDD1FC658DB4F74
:105360006881798144E050E082E594E00E94102F4A
:10537000009152041091530480915404909155046B
:105380000817190749F148E050E0B8018AE494E0B1
:105390000E94102F60914C0470914D0446E050E043
:1053A00084E494E00E94102F84E494E090934D04F0
:1053B00080934C048A819B8190934F0480934E0488
:1053C000E0914604F0914704309719F08AE494E0A4
:1053D0000995085F1F4FD0CF20917A0530917B054A
:1053E0002150310940917C0550917D054F5F5F4F01
:1053F0002423352330937D0520937C058FEFE81A15
:10540000F80AA0CFDF91CF911F910F91FF90EF90FD
:10541000DF90CF9008954F925F926F927F92AF92FC
:10542000BF92CF92DF92EF92FF920F931F93CF9391
:10543000DF93CDB7DEB762970FB6F894DEBF0FBE2D
:10544000CDBF8C016B01880F991F825B9949FC01CC
:10545000A590B490FC01659074907801EE0CFF1C4F
:10546000B701625F794942E050E0CE0141960E9467
:10547000102F29893A89DE01119680E090E0861587
:1054800097056CF4F90145915591659174914D938F
:105490005D936D937D9301962C5F3F4FF0CF28E095
:1054A00030E0201B310B81E090E002C0880F991F93
:1054B0002A95E2F7E0E0F1E0E81BF90BF7FD7F96B3
:1054C00095E0F595E7959A95E1F7EE0FFF1FEE0F42
:1054D000FF1FEE54F84FDE01119680E090E08A1530
:1054E0009B050CF069C041905190619071904D9175
:1054F0005D916D917D914421552166217721411562
:1055000051056105710509F455C0F701E250FA49EA
:1055100025913491DB01CA01AA27BB27892B8A2B4D
:105520008B2B31F4AB0166277727E1E1F0E002C075
:10553000E1E0F0E0411105C0452F562F672F772796
:105540003896DB01CA018F709927AA27BB27892BC0
:105550008A2B8B2B41F4B4E0769567955795479548
:10556000BA95D1F73496DB01CA0183709927AA272F
:10557000BB27892B8A2B8B2B41F4A2E0769567956C
:1055800057954795AA95D1F7329640FF31963197B6
:10559000E21BF30B02C0EE0FFF1F0A95E2F7D601E4
:1055A000ED93FC93CF01880F991F880F991F8455A5
:1055B0009A4F04C0019693CF80E090E062960FB6B8
:1055C000F894DEBF0FBECDBFDF91CF911F910F9139
:1055D000FF90EF90DF90CF90BF90AF907F906F9053
:1055E0005F904F900895CF9328E030E0261B370B53
:1055F00041E050E002C0440F551F2A95E2F720E039
:1056000031E0241B350B02C0959587956A95E2F72A
:10561000280F391FCFB7F894F90137FD7F9655E071
:10562000F595E7955A95E1F7EE0FFF1FEE0FFF1F77
:10563000EE54F84FC90160E270E00E94302F41E063
:1056400050E060E070E004C0440F551F661F771FF4
:105650008A95D2F780819181A281B381842B952B89
:10566000A62BB72B80839183A283B383CFBFCF9127
:105670000895CF9328E030E0261B370B41E050E03F
:1056800002C0440F551F2A95E2F720E031E0241BA9
:10569000350B02C0959587956A95E2F7280F391F5B
:1056A000CFB7F894F90137FD7F9675E0F595E7954A
:1056B0007A95E1F7EE0FFF1FEE0FFF1FEE54F84F44
:1056C000C90160E270E00E94302F41E050E060E0EC
:1056D00070E004C0440F551F661F771F8A95D2F7EC
:1056E000409550956095709580819181A281B3819C
:1056F00084239523A623B72380839183A283B38336
:10570000CFBFCF910895CF92DF92EF92FF920F9388
:105710001F93CF93DF9300D0CDB7DEB76C018B0121
:10572000BE016F5F7F4FC8010E940B2A892B31F1A8
:10573000B80189819A810E94392B780181E0E81AA9
:10574000F108B70189819A810E94F32A21E030E0B3
:105750000E2C02C0220F331F0A94E2F789819A812E
:10576000B701822793270E94F32A0C191D090230E2
:10577000110524F0B701C6010E94832B0F900F90F2
:10578000DF91CF911F910F91FF90EF90DF90CF901D
:1057900008956F927F928F929F92AF92BF92CF9215
:1057A000DF92EF92FF920F931F93CF93DF938C5A68
:1057B0009540C0E0D0E027E030E040E052E0F90161
:1057C000EC1BFD0BDA0102C0B595A795EA95E2F74F
:1057D000A617B70734F42196C830D10581F7CFEF6B
:1057E000DFEF8115B2E09B0718F08BED95E60DC059
:1057F0009E0121503109AC0102C0559547952A956B
:10580000E2F740FF09C086EB95E69F938F930E94D5
:10581000AF250F900F906FC08C01159507951595CA
:105820000795BE01C8010E94F32A68E0E62EF12C1C
:10583000EC1AFD0A88248394912CA12CBB24B394E8
:10584000C730D10509F457C0C4010C2E02C0880F1F
:10585000991F0A94E2F76C01C026D12694010E2C00
:1058600002C0220F331F0A94E2F7D501A21BB30B2B
:105870009D01A6010C2E02C0559547950A94E2F7AA
:10588000240F351FAFB7F894F90137FD7F96B5E0C7
:10589000F595E795BA95E1F7EE0FFF1FEE0FFF1FA5
:1058A000EE54F84F4081518162817381AFBFE1E0D6
:1058B000EE1AF1082F71332704C076956795579536
:1058C00047952A95D2F741705527452BA1F03C0109
:1058D0006094709460227122BE01C8010E94392B2D
:1058E000BE01C6010E94392B2196BE01C3010E9450
:1058F000F32A8301A5CFDF91CF911F910F91FF90E4
:10590000EF90DF90CF90BF90AF909F908F907F905F
:105910006F9008952FB7F894E2EBF7E0848D958DA2
:10592000A68DB78DB064848F958FA68FB78F2FBF4C
:1059300080E090E00895CF92DF92EF92FF920F9374
:105940001F93CF93DF9300D0CDB7DEB700E010E018
:1059500027E030E040E052E0B901601B710BFA0132
:1059600002C0F595E7956A95E2F7E817F9073CF468
:105970000F5F1F4F0830110579F70FEF1FEF809170
:105980008005811105C00E948A2C81E080938005EA
:105990000F3FFFEF1F0711F078010EC080E090E08D
:1059A0001AC0E7E0EE16F104C9F38FEFE81AF80A1F
:1059B000B701C8010E94832BBE016F5F7F4FC801F2
:1059C0000E940B2A6C01009761F3B80189819A81CA
:1059D0000E94392BC6010F900F90DF91CF911F913C
:1059E0000F91FF90EF90DF90CF90089589E597E6B3
:1059F0009F938F930E94AF250F900F90089585E499
:105A000097E69F938F930E94AF250F900F90089574
:105A10008EEE96E09F938F930E94AF250F900F908C
:105A200080E090E008958EE297E69F938F930E9426
:105A3000AF250F900F9008958AEF96E69F938F936E
:105A40000E94AF2589EC96E69F938F930E94AF2525
:105A500089E696E69F938F930E94AF250F900F9053
:105A60000F900F900F900F9080E090E008958EE5DA
:105A700096E69F938F930E94AF250F900F90089505
:105A80000F931F93CF93DF93FC010681178180E270
:105A900090E00E949B2CEC01F80191838083009799
:105AA000E1F084EB97E69F938F930E94AF258E01E0
:105AB0000E5F1F4F4EE150E060E070E0C8010E94B1
:105AC00090271983088389EA97E69F938F930E9412
:105AD000AF250F900F900F900F90DF91CF911F91F6
